:020000040000FA
:060000000A128A110C280F
:10000800FE00030EF2000A08F3000A128A1197296B
:100018000A128A110F28F601F701F801F901830184
:100028000A128A116429F500831203131F149F14FE
:100038001F083F3940389F00831603131F129F1271
:10004800D928831603170814C330831203139F0596
:1000580083160313051417298316031788148312AC
:1000680003131F08C33904389F008316031385142C
:100078001729831603170815831203131F08C3399A
:1000880008389F00831603130515172983160317CD
:100098008815831203131F08C3390C389F00831671
:1000A80003138515172983160317081683120313DC
:1000B8001F08C33910389F008316031385161729A4
:1000C800831603178816831203131F08C3391438BD
:1000D8009F0083160313091417298316031708179B
:1000E800831203131F08C33918389F00831603139C
:1000F80089141729831603178817831203131F08F7
:10010800C3391C389F008316031309151729831652
:1001180003170914831203131F08C33920389F00DB
:1001280083160313061517298316031789148312D8
:1001380003131F08C33924389F0083160313861539
:100148001729831603170915831203131F08C339C8
:1001580028389F008316031386141729831603175C
:100168008915831203131F08C3392C389F0083167F
:100178000313061617298316031709168312031388
:100188001F08C33930389F00831603130614172934
:10019800831603178916831203131F08C3393438CB
:1001A8009F008316031386161729750883120313F5
:1001B800A000A1012108003A0319E3281729200803
:1001C800003A03192528013A03193028033A03197C
:1001D8003D28013A03194A28073A03195728013AD2
:1001E80003196428033A03197128013A03197E2870
:1001F8000F3A03198B28013A03199828033A03196F
:10020800A528013A0319B228073A0319BF28013A69
:100218000319CC281729831603139F13282983163B
:1002280003139F17282974088312A000A10121082D
:10023800003A0319202928292008003A03190F2910
:10024800013A031913292829080083120313861B6E
:100258002E292F293229F801F80A45297803031D88
:100268003629372945290130F0007008F907F801C7
:100278002130F1007630F000F00B4029F10B4029D5
:10028800000083120313061B4A294B294E29F70144
:10029800F70A62297703031D52295329622979082D
:1002A800FF3EF0007008F900F7012130F1007630C8
:1002B800F000F00B5D29F10B5D2900000B10080020
:1002C80083160317890188018316031388018701A0
:1002D80086170617E730810070308F040F14F40179
:1002E80000300A128A1117200A128A110A128A117A
:1002F800B2210A128A1183160313961716178B1741
:100308008B159517151781130B10013083120313E2
:100318008700880179088800760887009F148E294D
:100328000A128A110C280B1C9A299B29A0290A1247
:100338008A1129210A128A11831203130C1FA52975
:10034800A629AB290A128A11BB210A128A1173083D
:100358008A00720E8300FE0E7E0E090083120313BC
:100368000C13831603130C178B170B170800831233
:0E03780003131E08F0007008F6000C130800B6
:04400E00D4E0FFFFFC
:00000001FF
