:020000040000FA
:060000000A128A110C280F
:10000800FE00030EF2000A08F3000A128A116F2894
:100018000A128A110F28F401F501F60183010A1268
:100028008A11512883120313861B1B281C281F289A
:10003800F501F50A32287503031D232824283228E0
:100048000130F0007008F607F5012130F100763034
:10005800F000F00B2D28F10B2D280000831203135C
:10006800061B372838283B28F401F40A4F28740364
:10007800031D3F2840284F287608FF3EF0007008EF
:10008800F600F4012130F1007630F000F00B4A2838
:10009800F10B4A2800000B1008008316031789018A
:1000A8008801831603138801870186170617E7302E
:1000B8008100961716178B178B159517151781132F
:1000C8000B108312031387018801760888006928BA
:1000D8000A128A110C280B1C7228732878280A1215
:1000E8008A1116200A128A1173088A00720E830078
:0600F800FE0E7E0E090061
:04400E00D4E0FFFFFC
:00000001FF
