:020000040000FA
:060000000A128A110E280D
:10000800FE00030EF5000408F6000A08F7000A12BD
:100018008A11E72A0A128A111128F801F901FA014E
:10002800FB01FC01FD0183120313A401A501830157
:100038000A128A11712A83120313A3001F149F1432
:100048001F083F3940389F00831603131F129F1261
:10005800E128831603170814C330831203139F057E
:100068008316031305141F29831603178814831294
:1000780003131F08C33904389F008316031385141C
:100088001F29831603170815831203131F08C33982
:1000980008389F008316031305151F2983160317B5
:1000A8008815831203131F08C3390C389F00831661
:1000B800031385151F2983160317081683120313C4
:1000C8001F08C33910389F008316031385161F298C
:1000D800831603178816831203131F08C3391438AD
:1000E8009F008316031309141F2983160317081783
:1000F800831203131F08C33918389F00831603138C
:1001080089141F29831603178817831203131F08DE
:10011800C3391C389F008316031309151F2983163A
:1001280003170914831203131F08C33920389F00CB
:100138008316031306151F298316031789148312C0
:1001480003131F08C33924389F0083160313861529
:100158001F29831603170915831203131F08C339B0
:1001680028389F008316031386141F298316031744
:100178008915831203131F08C3392C389F0083166F
:10018800031306161F298316031709168312031370
:100198001F08C33930389F008316031306141F291C
:1001A800831603178916831203131F08C3393438BB
:1001B8009F008316031386161F298312031323082F
:1001C800A100A2012208003A0319EB281F292108DF
:1001D800003A03192D28013A03193828033A03195C
:1001E8004528013A03195228073A03195F28013AAA
:1001F80003196C28033A03197928013A0319862848
:100208000F3A03199328013A0319A028033A03194E
:10021800AD28013A0319BA28073A0319C728013A41
:100228000319D4281F29831603139F133029831613
:1002380003139F17302983122008A100A201220866
:10024800003A0319282930292108003A03191729E7
:10025800013A03191B2930290800F200E329831207
:100268000313071087100711871107128712071742
:1002780087171D2A83120313071487100711871580
:1002880007168716071787171D2A831203130710E7
:1002980087100715871107128716071387171D2A56
:1002A8008312031307108710071187110716871683
:1002B800071387171D2A83120313071487100711C2
:1002C800871507168712071387171D2A831203132A
:1002D8000710871407118711071687120713871746
:1002E8001D2A831203130710871407118711071299
:1002F8008712071387171D2A831203130710871005
:100308000711871507168716071787171D2A8312DF
:100318000313071087100711871107128712071395
:1003280087171D2A831203130710871007118711D7
:1003380007168712071387171D2A8312031307103E
:1003480087100711871507128712071387171D2AA9
:1003580083120313071087100711871107128712DA
:10036800071387131D2A8312031307108714071511
:10037800871107128712071787171D2A831203137D
:10038800071087100711871107128712071787139D
:100398001D2A8312031307108714071587110712E4
:1003A8008712071387171D2A831203130710871450
:1003B8000715871507128712071387171D2A720852
:1003C800F000F1017108003A0319EB291D2A7008A1
:1003D800003A03193329013A03193E29033A03194C
:1003E8004929013A03195429073A03195F29013A9F
:1003F80003196A29033A03197529013A031980294F
:100408000F3A03198B29013A03199629033A03195C
:10041800A129013A0319AC29073A0319B729013A66
:100428000319C229033A0319CD29013A0319D82916
:100438001D2A08007908F30004300310F30CFF3E6E
:10044800031D212A7308F400740883120313A400FF
:1004580079080F39F3007308F8007A08031D352A64
:10046800362A582A851724080A128A1131210A12B5
:100478008A110730F4007D30F300F30B412AF40BA6
:10048800412AFF308312031387000B30F4006230D7
:10049800F300F30B4D2AF40B4D2A000083120313CB
:1004A8008513FA01FA0A6D2A051778080A128A11C3
:1004B80031210A128A110730F4007D30F300F30B62
:1004C800632AF40B632AFF30831203138700051392
:1004D800FA010B1106308100080083160317890101
:1004E8008801831603138801870105138513851274
:1004F80086170617E730810070308F040F148312B7
:100508000313A00100300A128A111F200A128A114F
:100518000A128A111A230A128A110A128A110D2341
:100528000A128A1183160313961716178B178B1541
:100538009517151781130B10FF30831203138700CB
:100548008801240888009F14A52A0A128A110E28F7
:1005580083120313861BB12AB22AB52AFC01FC0AAE
:10056800C82A7C03031DB92ABA2AC82A0130F00018
:100578007008FD07FC012130F1007630F000F00B27
:10058800C32AF10BC32A000083120313061BCD2ACA
:10059800CE2AD12AFB01FB0AE52A7B03031DD52AB3
:1005A800D62AE52A7D08FF3EF0007008FD00FB0111
:1005B8002130F1007630F000F00BE02AF10BE02A50
:1005C80000000B1008000B1CEA2AEB2AF02A0A127A
:1005D8008A11AC220A128A11831203130C1FF52AFE
:1005E800F62AFB2A0A128A1123230A128A110B1DE2
:1005F800FE2AFF2A042B0A128A111E220A128A11C5
:1006080077088A0076088400750E8300FE0E7E0E39
:1006180009008316031381128111F83081058B16A6
:1006280006308312031381000B1108008312031391
:100638000C13831603130C178B170B170800831260
:0E06480003131E08F0007008F9000C130800E0
:04400E00D4E0FFFFFC
:00000001FF
