:020000040000FA
:060000000A128A110C280F
:10000800FE00030EF2000A08F3000A128A111628ED
:100018000A128A110F28F401F501F60183010A1268
:100028008A115B280B1C19281A28542883120313D9
:10003800861B1F2820282328F501F50A3628750372
:10004800031D2728282836280130F0007008F607F5
:10005800F5012130F1007630F000F00B3128F10B7A
:100068003128000083120313061B3B283C283F2835
:10007800F401F40A53287403031D43284428532821
:100088007608FF3EF0007008F600F4012130F10018
:100098007630F000F00B4E28F10B4E2800000B10C4
:1000A80073088A00720E8300FE0E7E0E0900831606
:1000B80003178901880183160313880187018617AE
:1000C8000617E7308100961716178B178B159517AB
:1000D800151781130B108312031387018801760803
:0A00E800880073280A128A110C2800
:04400E00D4E0FFFFFC
:00000001FF
